:100000000C945C000C9479000C9479000C947900A9
:100010000C9479000C9479000C9479000C9479007C
:100020000C9479000C9479000C9479000C9479006C
:100030000C9479000C9479000C9479000C9479005C
:100040000C9422010C9479000C9479000C947900A2
:100050000C9479000C9479000C9479000C9479003C
:100060000C9479000C947900000000002400270013
:100070002A0000000000250028002B0004040404CE
:100080000404040402020202020203030303030342
:10009000010204081020408001020408102001021F
:1000A00004081020000000080002010000030407FB
:1000B000000000000000000011241FBECFEFD8E0B8
:1000C000DEBFCDBF11E0A0E0B1E0E8E2F4E002C0A5
:1000D00005900D92A031B107D9F721E0A0E1B1E080
:1000E00001C01D92A931B207E1F70E946C010C9486
:1000F00012020C94000090E0FC01EC55FF4F24919B
:10010000FC01E057FF4F3491FC01E458FF4FE491AC
:10011000EE23C9F0222339F0233001F1A8F4213075
:1001200019F1223029F1F0E0EE0FFF1FEE58FF4FDA
:10013000A591B4918FB7F894EC91611126C03095D8
:100140003E233C938FBF08952730A9F02830C9F093
:10015000243049F7809180008F7D03C0809180001A
:100160008F7780938000DFCF84B58F7784BDDBCF1E
:1001700084B58F7DFBCF8091B0008F778093B000E6
:10018000D2CF8091B0008F7DF9CF3E2BDACF3FB731
:10019000F8948091150190911601A0911701B091EA
:1001A000180126B5A89B05C02F3F19F00196A11D87
:1001B000B11D3FBFBA2FA92F982F8827BC01CD01B1
:1001C000620F711D811D911D42E0660F771F881F10
:1001D000991F4A95D1F708958F929F92AF92BF923F
:1001E000CF92DF92EF92FF920E94C7004B015C0119
:1001F00084EFC82EDD24D394E12CF12C0E94C7009B
:10020000681979098A099B09683E7340810591053F
:10021000A8F321E0C21AD108E108F10888EE880E9F
:1002200083E0981EA11CB11CC114D104E104F104A7
:1002300029F7FF90EF90DF90CF90BF90AF909F9005
:100240008F9008951F920F920FB60F9211242F9343
:100250003F938F939F93AF93BF93809111019091A0
:100260001201A0911301B09114013091100123E00B
:10027000230F2D3758F50196A11DB11D20931001B4
:100280008093110190931201A0931301B093140174
:100290008091150190911601A0911701B09118015C
:1002A0000196A11DB11D8093150190931601A09395
:1002B0001701B0931801BF91AF919F918F913F911A
:1002C0002F910F900FBE0F901F90189526E8230FC7
:1002D0000296A11DB11DD2CF789484B5826084BDF1
:1002E00084B5816084BD85B5826085BD85B581603A
:1002F00085BD80916E00816080936E0010928100B8
:100300008091810082608093810080918100816072
:100310008093810080918000816080938000809133
:10032000B10084608093B1008091B00081608093BF
:10033000B00080917A00846080937A0080917A0086
:10034000826080937A0080917A00816080937A0045
:1003500080917A00806880937A001092C100C0E09A
:10036000D1E0899199919927FC01E057FF4F2491A1
:1003700084589F4FFC018491882399F090E0880F66
:10038000991FFC01E859FF4FA591B491FC01EE586B
:10039000FF4F859194918FB7F894EC91E22BEC93F9
:1003A0008FBFF1E0C031DF07E1F620E0A22E20E0B0
:1003B000B22E00E011E0F80180810E5F1F4F61E076
:1003C0000E947B00C017D107B1F70E94EC0090E0BB
:1003D000E92E91E0F92EF7018081F2E0EF0EF11C99
:1003E00060E00E947B000E151F05A9F780E0E82E53
:1003F00081E0F82EF701D080F2E0EF0EF11C61E011
:100400008D2D0E947B000E94EC0060E08D2D0E94EB
:100410007B00E016F10671F7A114B10451F20E94BD
:080420000000C7CFF894FFCFE4
:100428000D000C000B000A00090008000700060078
:00000001FF
